:100000000C9434000C9451000C9451000C94510049
:100010000C9451000C9453000C94D8000C94510093
:100020000C9451000C9451000C9451000C9451000C
:100030000C9451000C9451000C9451000C945100FC
:100040000C9451000C9451000C9451000C945100EC
:100050000C9451000C9451000C9451000C945100DC
:100060000C9451000C94510011241FBECFEFD8E026
:10007000DEBFCDBF11E0A0E0B1E0EAECF8E002C0E5
:1000800005900D92A834B107D9F721E0A8E4B1E0BA
:1000900001C01D92A235B207E1F70E94FC000C944A
:1000A00053040C9400001F920F920FB60F9211246C
:1000B0008F939F93EF93FF9380914A0199B192FDA3
:1000C000846093FD8860803190F090914901925056
:1000D000909349018695869580934A01FF91EF910F
:1000E0009F918F910F900FBE0F901F901895E82F42
:1000F000F0E0EB5AFB4F0C946501909149019E5F33
:1001000090934901E7CF9091490191509093490113
:10011000E1CF909149019F5F90934901DBCFF89423
:1001200084E0809368008CE080936D00789408955B
:10013000F89420914901809149018370809349018D
:100140007894822F022E000C990B02969595879534
:1001500095958795909148012370022E000C330BE2
:100160002E5F3F4F3595279535952795209348016C
:10017000891B08959091C00095FFFCCF8093C60025
:100180008091C00086FFFCCF8091C0008064809386
:10019000C00090E080E008951092C5008CE080934C
:1001A000C40088E08093C10086E08093C200089577
:1001B0008F9381E080934B018F911895F8948091F3
:1001C0004B0110924B0178940895F89484B7877F7F
:1001D00084BFE0E6F0E080818861808310827894BB
:1001E0000895F894A895E0E6F0E0908198619083F6
:1001F00080648083789408950E94E5008091640073
:100200008F6E8093640014B817B81AB88FEF85B951
:1002100088B98BB97894809164008D7F8093640055
:100220000E94CC0080E091E090934F0180934E01BA
:100230000E948F008EE091E00E94810186E00E9482
:10024000F100D0E0C0E088E2E82E81E0F82E04E37F
:1002500011E083B7817F846083BF83B7816083BFF0
:1002600083B7816083BF889583B78E7F83BF81E228
:100270000E94F1008EE191E00E9481010E949800AD
:10028000811114C00E94DE00882319F36E018FEFE4
:10029000C81AD80ADF93CF931F930F930E946B0164
:1002A0000F900F900F900F90E601D3CF282F082EBC
:1002B000000C330B3F938F93FF92EF920E946B01E0
:1002C0000F900F900F900F90DDCFEE0FFF1F059056
:1002D000F491E02D0994B0E0A0E0E1E7F1E00C94A6
:1002E0002C04AE014B5F5F4FFA0161917191AF0138
:1002F00080914E0190914F010E94AD01E2E00C947B
:1003000048040F931F93CF93DF93E0914E01F09138
:100310004F01238110E000E021FD0EC00FEF1FEF21
:10032000C801DF91CF911F910F9108950995892BF5
:1003300011F00FEF1FEFCE01EC01899160914E019A
:1003400070914F01DB011896ED91FC918111EECF78
:100350008AE00995892B21F3E1CFABE0B0E0E3EB34
:10036000F1E00C941C047C013B018A01FC01178222
:100370001682838181FFB9C19AE0292ECE010196B0
:100380005C01F7019381F30193FD859193FF8191C6
:100390003F01882309F446C1853239F493FD8591E4
:1003A00093FF81913F01853229F4B70190E00E94CB
:1003B0008E03E7CF912C412C512CFFE1F51538F03D
:1003C0008B3209F188F4803201F1833221F157FC3C
:1003D0003AC020ED280F2A3040F556FE1FC0929CEF
:1003E000200D1124922E06C08D3291F0803379F7C2
:1003F000689450F8F30193FD859193FF81913F013B
:100400008111DBCF20C0689451F8689452F8F2CF84
:10041000689453F8EFCF689454F8ECCF429C200DC9
:100420001124422E689455F8E5CF8E3229F456FCFB
:10043000F9C0689456F8DECF8C3619F4689457F8F2
:10044000D9CF8836B9F2982F9F7D95549330C0F05C
:100450008336A1F18337C1F1833509F05BC0F80120
:10046000C190D1908F01692D70E056FC02C06FEFF2
:100470007FEFC6010E9478034C01689457F80AC0C8
:100480000C5F1F4F2FE3298388248394912C6501EF
:10049000E89457F853FC04C04814190409F018F5FF
:1004A000342C8114910431F5332009F46ACFB7015B
:1004B00080E290E00E948E033A94F6CFF8018081AA
:1004C00089830E5F1F4FE0CFF801C190D1908F015B
:1004D000692D70E056FC02C06FEF7FEFC6010E94ED
:1004E00083034C01D5CFB70180E290E00E948E03D8
:1004F0004A94D2CFF60157FC859157FE81916F0146
:10050000B70190E00E948E0331103A94F1E08F1A07
:100510009108C7CF843619F0893609F074C0F80104
:1005200057FE6AC061917191819191918F01252D42
:100530002F76D22E97FF09C0909580957095619582
:100540007F4F8F4F9F4F6894D7F82AE030E0A50186
:100550000E94BE03C82ECA188C2C5D2CD6FE0CC07F
:10056000E89450F8C91440F4D4FE05C0D2FC03C08E
:10057000FD2DFE7E5F2E892C54FE8FC0FE01EC0DFA
:10058000F11D8081803309F081C0252D297E522EF6
:10059000852D8870382E53FC8FC050FE89C09C2C4E
:1005A000841418F44C0C942C981854FE8BC0B7018A
:1005B00080E390E00E948E0352FE09C088E790E03D
:1005C00051FE02C088E590E0B7010E948E03C91475
:1005D00008F484C0CA94D12C9FEFC91AD90ACA0C56
:1005E000DB1CF60182916F01B70190E00E948E033F
:1005F000AC14BD04B1F758CF61917191072E000C76
:10060000880B990B93CFD52CE894D4F82AE030E0EE
:10061000853739F1952D997FD92E8F3601F148F420
:100620008835A9F0F701868197812B96E2E10C9439
:100630003804803749F08837A9F7D4FE02C068949F
:10064000D2F820E130E00DC06894D4F8F6CF54FE23
:1006500003C0E92FE660DE2E20E132E002C028E090
:1006600030E0F801D7FE0DC06191719181919191B7
:100670008F01A5010E94BE03C82ECA18E894D7F8BE
:100680006BCF6191719190E080E0F2CF52FC02C09B
:1006900083947ECF839483947BCF852D867809F4D1
:1006A00077CFF6CFB70180E290E00E948E0383946B
:1006B0008414C0F3312C79CF342C3818841408F406
:1006C00074CFF8CF852D867809F481CF8BE251FE67
:1006D00080E257FC8DE2B70190E077CFB70180E36D
:1006E00090E00E948E039A9472CF8FEF9FEF9DCF80
:1006F000FC010590615070400110D8F780959095ED
:100700008E0F9F1F0895FC016150704001900110F1
:10071000D8F7809590958E0F9F1F08950F931F9384
:10072000CF93DF93182F092FEB018B8181FD09C037
:100730001FEF0FEF812F902FDF91CF911F910F911E
:10074000089582FF14C02E813F818C819D812817DE
:1007500039073CF4E881F981CF01019699838883B8
:1007600010838E819F8101969F838E83E3CFE885DE
:10077000F985812F0995892BA1F3DACFFA01AA27F0
:10078000283051F1203181F1E8946F936E7F6E5FD4
:100790007F4F8F4F9F4FAF4FB1E03ED0B4E03CD082
:1007A000670F781F891F9A1FA11D680F791F8A1F65
:1007B000911DA11D6A0F711D811D911DA11D20D0CC
:1007C00009F468943F912AE0269F11243019305D86
:1007D0003193DEF6CF010895462F4770405D419377
:1007E000B3E00FD0C9F7F6CF462F4F70405D4A33C4
:1007F00018F0495D31FD4052419302D0A9F7EACF8C
:10080000B4E0A6959795879577956795BA95C9F7BA
:1008100000976105710508959B01AC010A2E0694AD
:100820005795479537952795BA95C9F7620F731F66
:10083000841F951FA01D08952F923F924F925F92A3
:100840006F927F928F929F92AF92BF92CF92DF92E0
:10085000EF92FF920F931F93CF93DF93CDB7DEB745
:10086000CA1BDB0B0FB6F894DEBF0FBECDBF0994D9
:100870002A88398848885F846E847D848C849B8430
:10088000AA84B984C884DF80EE80FD800C811B813E
:10089000AA81B981CE0FD11D0FB6F894DEBF0FBE6D
:1008A000CDBFED010895F894FFCF6A008900830061
:1008B0007D0083006A0065008900890065006A0088
:0A08C00083007D00830089006A00B8
:1008CA000000000200000000BA00000000000D0A4B
:1008DA0048656C6C6F20776F726C64210D00574FFE
:1008EA004B45205550210D0044656C74613A202512
:1008FA00640D0A0054696D657220457870697265E5
:08090A00642025640D0A0000C1
:00000001FF
